:020000040000FA
:020000000029D5
:10020000831604309F00860183124F2145309F00E2
:100210001F1908291E08A0004D309F001F190E2924
:100220001E08A10058212308031D19292208860051
:100230000629062980340634FF340034333406346A
:100240008834063400340034333406340034003447
:1002500000340434003404348034043480340434EE
:10026000FF3400342D348034D93405340234013461
:1002700000340334063402340134013405340634C6
:1002800002340134023404340734023401340034BB
:100290000534083402340134003404340634363072
:1002A00084000330A4008001840AA40B53290800B1
:1002B00030308400A5010330A6002008A4007D2171
:1002C0000330A6002108A4007D210130A9003530AB
:1002D000A800CE21A301AD01363084000330A9006F
:1002E000FE21A30D23188030A200080001308A00EF
:1002F0001A302C0703188A0A82002508AC007621E0
:10030000A7002402031CBF29031D8D29250AAC0068
:100310007621FF39031DBF29BD2902302507AC0016
:100320007621A80024082802031CA92901302507EA
:10033000AC007621FF390319BD29AB002708240240
:10034000AA00382203102E0CFF39031DBD292F0CE3
:10035000C02903302507AC007621FF390319BF29D6
:10036000AB0028082402AA00382203102E0CFF3903
:10037000031DBF29AF0C2F09C029FF30C029003051
:100380008000840A0430A507A60B7D2908002908EF
:100390008A002808250703188A0A8200A501C721B8
:1003A000A50AA700FF30A400C721A50AAE00C721F7
:1003B000A50AAD00C721A50A8400303084070008D3
:1003C0002402031CE5290008A400AE0BDA29C7218A
:1003D000A50A84003030840700082402031CF22997
:1003E00024088000AD0BE729A70BD22908000130B3
:1003F0008A0032302C0703188A0A8200A401A50162
:10040000A601A701A80100088001840AFF39031989
:100410001E2AAB002B08A8070318A70A2D08AC005A
:10042000F721AA0038222F08A60701300318A507D4
:100430000318A4072E08A5070318A40AAD0AA90BE0
:10044000032AA408031D272A270803192F2A0310AB
:10045000A40CA50CA60C0310A70CA80C212A280894
:10046000031D342A0314080046220310260808003E
:10047000AC01AC15AE012A08AB0C0318AE07AE0CEC
:10048000AB0CAC0B3D2A2B08AF000800AA01AC0155
:100490002C16A60DA50DAA0D2808031C522AAA0287
:1004A0000314552A2A020318AA00AC0B492AA60DE8
:0404B000A50D08008E
:02400E00B93FB8
:00000001FF
