:020000040000FA
:020000000029D5
:10020000831604309F000711FF30920083120730DD
:1002100092000C309700052285309F001F190E298F
:100220001E08A0008D309F001F1914291E08A10070
:100230000E222308031D1F29220895000C290C29D2
:100240000034003464341E346D34553473342B342C
:100250007E34FF348034FF348134FF348334FF3400
:100260008434FF348634FF348734FF348934FF34D8
:100270008A34AA34FF3400340034003400340834A3
:10028000003408343F3408343F3408347F340834B1
:100290007F340834BF340834BF340834FF340034AA
:1002A00000343F347F34BF34FF342334023401340C
:1002B000003407340C3402340134003408340C3474
:1002C00002340134003409340C3402340134003473
:1002D0000A340D340234013400340B340E34023449
:1002E0000134013407340C3402340134013408344D
:1002F0000C3402340134013409340D340234013435
:1003000001340A340E340234013401340B340F3416
:1003100002340134023407340C3402340134023420
:1003200008340D3402340134023409340E340234FA
:10033000013402340A340F340234013402340B34F1
:10034000103402340134033407340D3402340134E0
:10035000033408340E3402340134033409340F34C6
:100360000234013403340A341034023401340334C7
:100370000B34103402340134043407340E340234A4
:100380000134043408340F340234013404340934A1
:1003900010340234013404340A3410340234013489
:1003A00004340B34103402340134053407340F3470
:1003B0000234013405340834103402340134053475
:1003C000093410340234013405340A341034023450
:1003D000013405340B34103402340134063407344C
:1003E0001034023401340634083410340234013439
:1003F0000634093410340234013406340A3410341B
:100400000234013406340B3410343C30840005309F
:10041000A4008001840AA40B092A0800303084005B
:10042000A5010730A6002008A40033220530A6004D
:100430002108A40033220130A9005530A8008422ED
:10044000A301AD013C3084000530A900B422A30D06
:1004500023188030A200080001308A0020302C07C9
:1004600003188A0A82002508AC002C22A700240267
:10047000031C752A031D432A250AAC002C22FF39D0
:10048000031D752A732A02302507AC002C22A80010
:1004900024082802031C5F2A01302507AC002C2207
:1004A000FF390319732AAB0027082402AA00EE22A1
:1004B00003102E0CFF39031D732A2F0C762A0330EC
:1004C0002507AC002C22FF390319752AAB00280838
:1004D0002402AA00EE2203102E0CFF39031D752AF8
:1004E000AF0C2F09762AFF30762A00308000840A6C
:1004F0000430A507A60B332A080029088A0028081B
:10050000250703188A0A8200A5017D22A50AA700F3
:10051000FF30A4007D22A50AAE007D22A50AAD0011
:100520007D22A50A84003030840700082402031CC1
:100530009B2A0008A400AE0B902A7D22A50A840005
:100540003030840700082402031CA82A24088000F5
:10055000AD0B9D2AA70B882A080001308A00503075
:100560002C0703188A0A8200A401A501A601A7018D
:10057000A80100088001840AFF390319D42AAB00BE
:100580002B08A8070318A70A2D08AC00AD22AA0063
:10059000EE222F08A60701300318A5070318A407A9
:1005A0002E08A5070318A40AAD0AA90BB92AA408A6
:1005B000031DDD2A27080319E52A0310A40CA50C46
:1005C000A60C0310A70CA80CD72A2808031DEA2A9A
:1005D00003140800FC22031026080800AC01AC1527
:1005E000AE012A08AB0C0318AE07AE0CAB0CAC0B7B
:1005F000F32A2B08AF000800AA01AC012C16A60DA7
:10060000A50DAA0D2808031C082BAA0203140B2B06
:100610002A020318AA00AC0BFF2AA60DA50D08009C
:02400E003A3D39
:00000001FF
