:020000000429D1
:02000800642969
:080020008A018207FC34603400
:08002800DA34F2346634B63418
:08003000BE34E034FE34E63476
:0800380002309C009E01C7305C
:0800400026020319252803180C
:0800480030289C0363302602FE
:0800500003192C2803183028C5
:080058009C0326089D003228DC
:080060009D009D030A301D0202
:08006800031C39289D009E0ACB
:0800700032281E0E9D04080059
:0800780070201C080319672821
:080080008B138B1310208B176A
:080088005A201D0E0F398B13E5
:080090008B1310208B17921E48
:0800980001385A201D080F3940
:0800A0008B138B1310208B174A
:0800A8005A201208FC395A200D
:0800B0007A2008009E000830D0
:0800B8009A009E0D0318861446
:0800C000061500000611861070
:0800C8009A0B5D2808000030CE
:0800D0005A201D0E0F39031D1B
:0800D800452800305A204E2893
:0800E0008610061100008611D4
:0800E800861406150000061144
:0800F000861008000615061138
:0800F80006150611061506119C
:0801000086150800AD18080087
:08010800932022088B138B13D6
:080110008A0182070129C628BB
:08011800ED280129B32801299B
:0801200001290129D928A201DF
:080128008614061583168113ED
:0801300083128610AB200319B5
:08013800AD16A207AD1E080080
:0801400086140611AB20AD127C
:080148000319B028A200031006
:08015000A20DA20D0800060E2D
:080158009E001E090339080096
:080160002D10A20108008B170D
:080168008B162D1808002D195B
:0801700008002D142D15AD143B
:08017800121183160613831215
:080180002D1F08002322262197
:08018800232208008B178B16DF
:080190002D1808002D1D0800C8
:080198002D142D11AD141215F8
:0801A00083160617831290017B
:0801A8009101AC01AB018511CE
:0801B00008008B178B162D18B7
:0801B80008001119080091195B
:0801C0000800921A0800121B4E
:0801C800EA28921312172D140E
:0801D000AD1408001213921691
:0801D800E7288B178B162D1888
:0801E000080011190800911933
:0801E8000800921B0800121B25
:0801F000FE28921212172D14D3
:0801F800AD1408001213921768
:08020000FB288B178B16080088
:080208003F214821552161212D
:080210007020232212171215C1
:08021800932022181D29221970
:080220001F291216111011161E
:08022800A519B12125180E22D1
:08023000A51883212519862180
:080238001429921512292D175B
:08024000121626219320221959
:08024800222912297020CE309A
:080250005A207A305A20000107
:080258005A201208FC395A205B
:080260007A20362136213621F7
:08026800362108009A019C01F7
:0802700039293A299C0B3829B9
:080278009A0B382908000C3034
:0802800084008001840A841E41
:080288004129041E4129080070
:08029000860185018615861721
:080298008316033088000730D3
:0802A000850071308600831215
:0802A8000800C13062000630BD
:0802B0008100A0308B00143026
:0802B800A3000530A400A10021
:0802C0000800C03088000800AE
:0802C8008B180E2B0B1D080022
:0802D000AF00AF0E030EAE00FB
:0802D800063081000B11251412
:0802E000A30B7F29A5141430C3
:0802E800A300A40B7F292515DA
:0802F0000530A400A10B7F29D9
:0802F800A5150530A1002E0E32
:0803000083002F0E0900A51077
:08030800822008002511FF21ED
:08031000472211192D2A911951
:080318003A2A9118152A2C085D
:08032000921A9D291F08921B8F
:08032800A2292708A6001C20F1
:08033000A921053012189D04FB
:080338009F29A6001C203C20B7
:08034000F6210800A6001C20B4
:08034800A921053092189D0463
:080350009F2904309E000310F8
:080358009D0D9C0D9E0BAB29CD
:080360000800A511111CB629CB
:080368001110B72911142D1B1F
:08037000D821921908002D1D8F
:0803780008000310270D9C0092
:0803800012181C1403100E0DED
:080388009A00AD1B1A141A08BB
:080390001C02031CD9228F009E
:0803980027088E00AD131218B6
:0803A000AD17111EED29DE214D
:0803A8000623E42111120800F4
:0803B000121EDC2912120800E4
:0803B800121608008B12251635
:0803C000851D251285110800BE
:0803C800B0308B0081306200AF
:0803D00006308100251A851595
:0803D8000800900A1008063C21
:0803E000031CF329080091152C
:0803E8000B12D329AD1C080023
:0803F000AD1DFD29AD11AD109A
:0803F8000800AD1508002D1DE1
:0804000008002C08643C2C08E4
:08040800031C6430AB00031972
:080410000C2A8511111D851550
:08041800AC00080025102D1DA9
:080420000800AB0B0800851178
:08042800080070201118232ABE
:0804300000015A20FD305A20A2
:08043800FC305A201208FC39C7
:080440005A207A200800000197
:080448005A2000015A200001B6
:080450005A201208FC395A2061
:08045800212A70201118232A4B
:080460006E305A203A305A2098
:080468001E305A201208FC3975
:080470005A20212A7020111806
:08047800232AB6305A209E3001
:080480005A200A305A2012082C
:08048800FC395A20212AC13081
:08049000880071220815881C88
:080498004B2A88107622A70010
:0804A00011196D2A4A3C031CEE
:0804A8001115921D612A0812D2
:0804B000881571220815881C53
:0804B8005B2A881089099122DA
:0804C000AC008811081671223E
:0804C8000815881C652A881044
:0804D0008909A1229F00C92245
:0804D8000800463C0318111155
:0804E000552A05309E009E0B19
:0804E800732A08009C01911029
:0804F0004F308902031C8D2A24
:0804F80004309E000310890D81
:080500009C0D9E0B7F2A0908E7
:080508009D000F309A00B7229C
:0805100012101E0C0318121456
:0805180008009114121000010B
:0805200008009C010310090D05
:080528009D009C0D05309A00B6
:08053000B72264301E0203181B
:080538009F2A1E080800643030
:0805400008009C010310890D65
:080548009C0D090D9D009C0DA6
:0805500011309A00B72292104D
:080558003C301E020318B52A15
:080560001E0C283E0318921442
:0805680008001E30B12A9E01BB
:080570001A089D02BF2A031CBA
:0805780008009E0AB82A0318CE
:08058000BB2A9C080319C72ADD
:0805880001309C02BB2A0310A4
:08059000BB2A0310270D9A009D
:0805980012181A1403101F0DC4
:0805A0009C0092181C141A08BB
:0805A8001C02031CD92298007B
:0805B00008009A009A099A0A5A
:0805B8009A171A080800AA00B6
:0805C0002030A00009309A0070
:0805C8008613A00BE52A203088
:0805D000A0009A0BEF2A861728
:0805D800A00BEC2A0800AA0C9C
:0805E000031CF42A8617E52A2A
:0805E8008613E52A2030A00073
:0805F00009309A00A00BFA2A61
:0805F8002030A0009A0B012B3A
:08060000812B031006180314FE
:08060800A90CFA2A180830239E
:080610000F082D1B30231A30E6
:08061800512308008B01AF0023
:08062000AF0E030EAE00DE2157
:080628002B235323911A242B0C
:0806300086231A08AC00111624
:08063800900191112030E52131
:080640002E0E83002F0E0900AD
:0806480091122030E5212E0E75
:0806500083002F0E0900873022
:08065800620081010B11080092
:08066000A6002B30A61B2D3073
:08066800A61394001C2044239A
:08067000143084005023840AB9
:080678005023840A5023840A78
:08068000502300015123080082
:080688001C08303E95001D0E18
:080690000F39303E96001D08F1
:080698000F39303E9700080005
:0806A0000008DF2208009601AA
:0806A800802330302902950087
:0806B0007C23911A0800FF39B8
:0806B80003196E2B2E3A031901
:0806C000752B30302902970070
:0806C800970E043093000310AB
:0806D000970D950D960D930B9B
:0806D800672B582B7C23911ABB
:0806E00008001A3A031D000096
:0806E80008007C23911A0800B0
:0806F000FF3903196E2B752B75
:0806F8000B19832B06187C2B63
:08070000F62A290808000B117C
:08070800911608001608031DFC
:080710009223150E0F39031DA1
:08071800982315080F39031D99
:080720009F2308000001643E64
:08072800960B932B9A000800C8
:08073000960000010A3E960B41
:080738009A2B9A0708009600B5
:080740000001013E960BA12B04
:040748009A07080004
:00000001FF
