:020000040000FA
:020000000029D5
:10020000831604309F0086010711FF30920083128D
:10021000073092000C309700932185309F001F1902
:100220000F291E08A0008D309F001F1915291E08D8
:10023000A1009C212308031D212922089500860086
:100240000D290D29003400347B3466347D34AA3402
:100250008034FF3480346634FF340034003400349A
:10026000003408340034083441340834413408344C
:100270007F3408347F340834C1340834C13408343E
:10028000FF3400342A3456348034A934D5340F3442
:1002900002340134003403340834023401340034AD
:1002A000043408340234013400340534093402348F
:1002B0000134003406340A34023401340034073483
:1002C0000B34023401340134033408340234013471
:1002D000013404340A3402340134013405340B345B
:1002E00002340134013406340C3402340134013454
:1002F00007340C3402340134023403340934023438
:100300000134023404340A34023401340234053432
:100310000B3402340134023406340C340234013418
:10032000023407340C34383084000530A4008001D6
:10033000840AA40B9729080030308400A5010330FB
:10034000A6002008A400C1210530A6002108A400B1
:10035000C1210130A9004730A8001222A301AD013C
:10036000383084000530A9004222A30D2318013043
:10037000A200080001308A0022302C0703188A0AE4
:1003800082002508AC00BA21A7002402031C032A1E
:10039000031DD129250AAC00BA21FF39031D032A08
:1003A000012A02302507AC00BA21A800240828023F
:1003B000031CED2901302507AC00BA21FF390319D0
:1003C000012AAB0027082402AA007C2203102E0C6D
:1003D000FF39031D012A2F0C042A03302507AC0026
:1003E000BA21FF390319032AAB0028082402AA0006
:1003F0007C2203102E0CFF39031D032AAF0C2F099A
:10040000042AFF30042A00308000840A0430A50743
:10041000A60BC129080029088A0028082507031807
:100420008A0A8200A5010B22A50AA700FF30A400BA
:100430000B22A50AAE000B22A50AAD000B22A50ACD
:1004400084003030840700082402031C292A000895
:10045000A400AE0B1E2A0B22A50A840030308407AC
:1004600000082402031C362A24088000AD0B2B2A26
:10047000A70B162A080001308A0042302C07031807
:100480008A0A8200A401A501A601A701A80100080B
:100490008001840AFF390319622AAB002B08A807E0
:1004A0000318A70A2D08AC003B22AA007C222F08C3
:1004B000A60701300318A5070318A4072E08A507EF
:1004C0000318A40AAD0AA90B472AA408031D6B2A26
:1004D00027080319732A0310A40CA50CA60C0310FB
:1004E000A70CA80C652A2808031D782A0314080005
:1004F0008A22031026080800AC01AC15AE012A08B8
:10050000AB0C0318AE07AE0CAB0CAC0B812A2B085E
:10051000AF000800AA01AC012C16A60DA50DAA0D6E
:100520002808031C962AAA020314992A2A020318EF
:0C053000AA00AC0B8D2AA60DA50D08003A
:02400E00BA3FB7
:00000001FF
