:02000000FE28D8
:020008003C2991
:100020008A018207FC346034DA34F2346634B63440
:10003000BE34E034FE34E63402309F00A101C73004
:100040002C0203192528031830289F0363302C0243
:1000500003192C28031830289F032C08A0003228ED
:10006000A000A0030A302002031C3928A000A10A26
:100070003228210EA004080070201F0803196728E9
:100080008B138B1310208B175A20200E0F398B13D4
:100090008B1310208B17A51E01385A2020080F390A
:1000A0008B138B1310208B175A202508FC395A20EC
:1000B0007A200800A10008309E00A10D03188614C4
:1000C00006150000061186109E0B5D280800003002
:1000D0005A20200E0F39031D452800305A204E2883
:1000E0008610061100008611861406150000061100
:1000F00086100800061506110615061106150611CC
:1001000086150800A3180800932022088B138B1370
:100110008A018207FB28C128E728FB28B328FB288F
:10012000FB28FB28D328A201861406158316811309
:1001300083128610AB200319A316A207A31E080082
:1001400086140611AB20A3120319B028A2000310D5
:10015000A20DA20D0800060EA10021090339080016
:100160002310A20108008B178B16231808002319EF
:10017000080023142315A3142511831606138312D4
:1001800008008B178B1623180800231D0800231462
:100190002311A3142515831606178312A401AD019C
:1001A0008D01851108008B178B1623180800241960
:1001B0000800A4190800A51A0800251BE428A513A7
:1001C00025172314A31408002513A516E1288B175F
:1001D0008B162318080024190800A4190800A51B71
:1001E0000800251BF828A51225172314A3140800BE
:1001F0002513A517F5288B178B160800172120212A
:100200002D2139219A227020C621251725159320EA
:100210002218152925162410AB1985212B18B12178
:10022000AB1859212B195C210C29A5150B290C3071
:1002300084008001840A841E1929041E19290800DB
:1002400086018501861586178316033088000730DE
:1002500085007130860083120800C13062000630CC
:100260008100A0308B001430A9000530AA00A8003E
:100270000800C030880008000B1D0800AF00AF0E5A
:10028000030EAE00063081000B112B14A90B55296B
:10029000AB141430A900AA0B55292B150530AA0060
:1002A000A80B5529AB150530A8002E0E83002F0E84
:1002B0000900AB10822008002B11A221DD21241996
:1002C000D029A418B8290D08A51A71292608A51B3C
:1002D00076292708AC001C207D2105302518A004B4
:1002E0007329AC001C203C2099210800AC001C2084
:1002F0007D210530A518A00473290430A100031046
:10030000A00D9F0DA10B7F290800AB11241C8A2989
:1003100024108B292414A5190800231D0800A322EA
:100320008C1B8D010800251E972925120800251613
:100330000800A31C0800A31DA029A311A3100800F6
:10034000A3150800231D08000D08643C0D08031CBC
:100350006430AD000319AF298511241D85158D006A
:1003600008002B10231D0800AD0B080085110800A4
:1003700070202418C62903015A20FD305A20FC3071
:100380005A202508FC395A207A20080003015A20F7
:1003900003015A2003015A202508FC395A20C42998
:1003A00070202418C6296E305A203A305A201E3048
:1003B0005A202508FC395A20C429C1308800072258
:1003C0000815881CE12988100C22A7002419032A8B
:1003D0004A3C031C2415A51DF7290812881507227D
:1003E0000815881CF1298810890927228D00881199
:1003F000081607220815881CFB298810890937224E
:10040000A6005F220800463C03182411EB290530A2
:10041000A100A10B092A08009F01A4104F308902F6
:10042000031C232A0430A1000310890D9F0DA10B8A
:10043000152A0908A0000F309E004D222510210C1E
:10044000031825140800A4142510030108009F01B7
:100450000310090DA0009F0D05309E004D22643051
:1004600021020318352A21080800643008009F0182
:100470000310890D9F0D090DA0009F0D11309E00E6
:100480004D22A5103C30210203184B2A210C283E96
:100490000318A51408001E30472AA1011E08A00257
:1004A000552A031C0800A10A4E2A0318512A9F0846
:1004B00003195D2A01309F02512A0310512A0310AB
:1004C000270D9E0025181E140310260D9F00A51849
:1004D0001F141E081F02031C6F228C0008009E00C0
:1004E0009E099E0A9E171E0808000034003402343C
:1004F0000B341A34143434340734563409348F34FA
:100500000834A0340534FF340034013429348A34EB
:10051000FF34043401340134003404340134013430
:100520000134053401340134023406340134013419
:10053000033407341F30840004308F008001840AA4
:100540008F0B9E2A08001B3084009001043091001C
:100550000C088F00C32202309400893093001423CA
:100560008E0198011F3084000430940044238E0DC6
:100570000E1801308D00080002308A007530170710
:1005800003188A0A820010089700BC2292000F020A
:10059000031C052B031DD32A100A9700BC22FF3928
:1005A000031D052B032B023010079700BC2293007C
:1005B0000F081302031CEF2A013010079700BC221A
:1005C000FF390319032B960012080F0295007E23B2
:1005D0000310190CFF39031D032B1A0C062B0330D3
:1005E00010079700BC22FF390319052B960013084A
:1005F0000F0295007E230310190CFF39031D052BF4
:100600009A0C1A09062BFF30062B00308000840A52
:1006100004309007910BC32A080014088A001308BD
:10062000100703188A0A820090010D23900A920095
:10063000FF308F000D23900A99000D23900A980037
:100640000D23900A84001B30840700080F02031C4E
:100650002B2B00088F00990B202B0D23900A840070
:100660001B30840700080F02031C382B0F08800082
:10067000980B2D2B920B182B080002308A00853026
:10068000170703188A0A82008F01900191019201D5
:10069000930100088001840AFF390319642B960036
:1006A000160893070318920A180897003D2395002F
:1006B0007E231A08910701300318900703188F074B
:1006C0001908900703188F0A980A940B492B8F0872
:1006D000031D6D2B12080319752B03108F0C900C42
:1006E000910C0310920C930C672B1308031D7A2BAB
:1006F000031408008C2303101108080097019715B4
:1007000099011508960C03189907990C960C970BEC
:10071000832B16089A000800950197011716910D72
:10072000900D950D1308031C982B950203149B2B19
:10073000150203189500970B8F2B910D900D080053
:00000001FF
