:020000040000FA
:10000000E20180080608FF0800083308060888088F
:100010000608000800083308060800080008000861
:100020000408000804088008040880080408FF0881
:100030000008E2012D088008D908E201050802083D
:10004000010800080308060802080108010805085D
:100050000608020801080208040807080208010847
:100060000008050808080208010800080408060836
:06007000140B1D0B2B0B0D
:100100003809000C2800A00C2900170C24006D00F1
:10011000030C2E0008022C003A09030C2E000902E1
:100120002C003A096D000D021D09AD022F00FF0CD5
:100130002C000D021D09AD0236000D021D09AD0295
:1001400035000D021D09AD022400170CE401000268
:100150008C000307AD0A00022C00F602A10A0D0272
:100160001D09AD022400170CE40100028C000307F6
:10017000BB0A0C022000F502AF0AEF02970A6B00DF
:100180001F0C2400030C31006C006D006E006F002A
:100190007000F10000026000E400FF0E4306E40A74
:1001A00033001302F0010306AF02110219093200F5
:1001B00039091602EE01010C0306ED010306EC01FC
:1001C0001502ED010306AC0231024307C90A2C02F5
:1001D0004307ED0A0F024306F50A03042C032D031F
:1001E0002E0303042F033003E70A10024307FA0A21
:1001F00003050F0B7200740094056E036D03720308
:1002000010020307060BB2000305090B9200030658
:100210003200F402FD0A6E036D0303040E026B0349
:100220000B06800C2A00700B1D0C2400030C2C0004
:100230006000A402EC02180B00087400740575003D
:10024000120233030306F50135033303F402220BD4
:100250001302360000080D0200092F008C0003076E
:10026000680B4307390B8D020009FF0E4307680B2B
:10027000660B020CCD01000930000C029000030750
:10028000530B010CCD010009FF0E4306660B330032
:100290000F028C003200390903041503FF0E4307D7
:1002A000660B1603690B030CCD010009FF0E430614
:1002B000680B330010028C00320039090304150367
:1002C000FF0E4307680B36035602690BFF0C690BE0
:1002D000000C2000A402040CED01EE022B0B000820
:0C02E0000B024307750B0A02810A810A19
:0203FE00800A73
:00000001FF
